:020000023000CC
:10FC00000D9472FE0D9486FE0D9486FE0D9486FE74
:10FC10000D9486FE0D9486FE0D9486FE0D9486FE50
:10FC20000D9486FE0D9486FE0D9486FE0D9486FE40
:10FC30000D9486FE0D9486FE0D9486FE0D9486FE30
:10FC40000D9486FE0D9486FE0D9486FE0D9486FE20
:10FC50000D9486FE0D9486FE0D9486FE0D9486FE10
:10FC60000D9486FE0D9486FE0D9486FE0D9486FE00
:10FC70000D9486FE0D9486FE0D9486FE0D9486FEF0
:10FC80000D9486FE0D9486FE0D9486FE0D9486FEE0
:10FC90000D9486FE0D9486FE0D9486FE0D9486FED0
:10FCA0000D9486FE0D9486FE0D9486FE0D9486FEC0
:10FCB0000D9486FE0D9486FE0D9486FE0D9486FEB0
:10FCC0000D9486FE0D9486FE0D9486FE0D9486FEA0
:10FCD0000D9486FE0D9486FE0D9486FE0D9486FE90
:10FCE0000D9486FE11241FBECFEFD1E2DEBFCDBF43
:10FCF00001E00CBF23E0A0E0B2E001C01D92A03003
:10FD0000B207E1F70F94F9FE0D94B0FF0D9400FED9
:10FD10008F929F92AF92BF92EF92CF93DF93EFB605
:10FD2000F894F999FECFEA0153954B015C0121E06B
:10FD3000E8813981A32FB0E0BA2FAA27AE0FB11DF9
:10FD40000D01F401A0925B0020935700E895112467
:10FD5000229632E0830E911CA11CB11CC417D5075A
:10FD600039F725E0FB0180935B0020935700E8956D
:10FD700007B600FCFDCF81E180935700E895EFBE08
:10FD8000DF91CF91EF90BF90AF909F908F900895AB
:10FD90004FB7F894F999FECF80E090E0DC0133E0B2
:10FDA00021E1FC01A0935B0030935700E89507B672
:10FDB00000FCFDCF20935700E8959F5FAF4FBF4FEA
:10FDC00081155CEF950753E0A507B10551F74FBFCB
:10FDD0000895E0ECF0E080818823ECF78091C60084
:10FDE0000895E0ECF0E0908195FFFDCF8093C60090
:10FDF0000895AF92BF92CF92DF92EF92FF920F934E
:10FE00001F93CF93DF9388E18093C10086E08093B6
:10FE1000C20088E08093C4008091C0008823C4F0B1
:10FE200080E090E0E0ECF0E001962FEF31EE44E06E
:10FE3000215030404040E1F700C0000020812223E3
:10FE400024F08431910581F776C0449708F073C09F
:10FE50008091C600833209F06EC00F94C8FE81E61F
:10FE60000F94F1FE0F94E9FEC82F882329F00F9418
:10FE7000E9FEC82F8111FBCF0F94E9FE8C2F90E093
:10FE8000182F0027082B192B0F94E9FED82E81E29A
:10FE9000D81609F447C00F2EF0E0EF2EF2E0FF2E47
:10FEA000F02DC0E0D3E0B12CEFE3DE120EC081E60E
:10FEB0000F94F1FE0F94E9FE082F0F94E9FE10E075
:10FEC000102F0027082B0F94E9FE6701AB2C0F942D
:10FED000E9FEF60181936F01A80EEC17FD07B9F753
:10FEE0008A2D81950F94F1FE0F94E9FED82EF4E24D
:10FEF0008F1789F00C3F23E0120768F4C801A0E0D7
:10FF0000B0E06627782F892F9A2FA7010F9488FEDB
:10FF10000F5F1F4F04C00C3F33E0130719F041E29D
:10FF2000D412C2CF1092C1001092C2001092C4002D
:10FF30000C94000008C01092C1001092C2001092F0
:10FF4000C4000C94000080E090E0DF91CF911F91FD
:10FF50000F91FF90EF90DF90CF90BF90AF900895FA
:04FF6000F894FFCF43
:040000033000FC00CD
:00000001FF
